:1000000089C08EC08DC08CC08BC08AC089C088C09A
:1000100087C086C01212120EFE0000000000000011
:1000200000000000000000000000000000000000D0
:1000300000000000000000000000000000000000C0
:1000400000000000000000000000000000000000B0
:1000500000000000000000000000000000000000A0
:100060000000000000000000000000000000000090
:100070000000000000000000000000000000000080
:100080000000000000000000000000000000000070
:100090000000000000000000000000000000000060
:1000A0000000000000000000000000000000000050
:1000B0000000000000000000000000000000000040
:1000C0000000000000000000000000000000000030
:1000D0000000000000000000000000000000000020
:1000E0000000000000000000000000000000000010
:1000F0000000000000000000000000000000000000
:1001000000000000000000000000000000000000EF
:100110000000FF0011241FBECFE9CDBF02D045C0B3
:100120006FCFEF92FF920F931F938FEF87BBC29A0F
:10013000C098C39AE4E1F0E080E09EEFA0E0B0E078
:10014000E4902227382F492F5A2FFF2400E010E097
:100150002E293F29402B512B19E1B9016170707094
:100160006115710511F0C19A01C0C198C09AC0987B
:10017000115029F05695479537952795EECFC2989F
:10018000C29A31960196A11DB11D80302FEF9207C2
:1001900020E0A20720E0B20799F6C39880E090E043
:0E01A0001F910F91FF90EF900895F894FFCFFC
:00000001FF
